S01700004763634170706C69636174696F6E312E737265635B
S113000045C0000061C000005FC000005DC000008A
S11300105BC0000059C0000057C0000055C000007C
S113002053C0000051C000004FC000004DC000008C
S11300304BC0000049C0000047C0000045C000009C
S1130040ADC0000041C000008AC000003DC00000F7
S11300503BC0000039C0000037C0000035C00000BC
S113006033C0000031C000002FC000002DC00000CC
S11300702BC0000029C0000027C0000025C00000DC
S113008023C0000021C000001FC0000011241FBEB7
S1130090CFEFD0E1DEBFCDBF11E0A0E0B1E0EAE3F5
S11300A0F3E100E00BBF02C007900D92AA30B10744
S11300B0D9F722E0AAE0B1E001C01D92A537B2074A
S11300C0E1F7E9D40C949B099BCF2CB53DB5232BC8
S11300D0E1F325E535E545E051E40E94380920E0E7
S11300E030E048E453E40DD7DCD7673881E0780783
S11300F034F46A3071052CF46AE070E002C066E8FA
S113010071E0CB01089690938500809384009BBD99
S11301108ABD68507109709387006093860079BD29
S113012068BD0895CF9318BA88E8E0D683E4DED694
S1130130C1E0C8BB18BA80E9D9D680E0D7D6C8BB1D
S113014018BA80E2D3D6C8BBCF91089587B1807F17
S113015087B9369A349BFECF84B195B108951F9226
S11301600F920FB60F9211240BB60F928F93EF9349
S1130170FF93E0913C0281E08E0F80933C02F0E01B
S11301808CB1E85DFE4F8083FF91EF918F910F90CA
S11301900BBE0F900FBE0F901F9018951F920F92D9
S11301A00FB60F9211240BB60F928F929F92AF92BB
S11301B0BF92CF92DF92EF92FF922F933F934F9390
S11301C05F936F937F938F939F93AF93BF93CF93DB
S11301D0EF93FF9383E882BFC1E0C5BBB7DFBC01E7
S11301E0990F880B990B90D7609363027093640204
S11301F080936502909366028091670290916802F1
S1130200A0916902B0916A028093340290933502FE
S1130210A0933602B093370218BA88EE67D6C8BBEB
S113022018BA88E663D667D6C82ED12CE12CF12CF7
S1130230FE2CED2CDC2CCC245ED6C82AFE2CED2C16
S1130240DC2CCC2458D6C82AFE2CED2CDC2CCC2457
S113025052D6C8BBC82AF094E094D094C094C11C70
S1130260D11CE11CF11CC0926702D0926802E0929A
S11302706902F0926A02609167027091680280914B
S1130280690290916A0240D72BED3FE049E450E4C3
S1130290EFD720E030E042E258E49BD660931001AF
S11302A070931101809312019093130183E085BB35
S11302B09091620289E2989F812D112482958F701A
S11302C024E6829F90191124911199C01092620220
S11302D080914A0290914B02A0914C02B0914D0240
S11302E080932C0290932D02A0932E02B0932F02A0
S11302F0609114017091150180911601909117017C
S1130300209110013091110140911201509113017B
S1130310F7D560934A0270934B0280934C029093FA
S11303204D02C0904A02D0904B02E0904C02F090F3
S11303304D0260914A0270914B0280914C0290915F
S11303404D0220912C0230912D0240912E025091A9
S11303502F02D6D52DEC3CEC4CEC5DE389D72DEC8B
S11303603CEC4CE45DE335D64B015C01A7019601FE
S1130370C701B601C6D59B01AC01C501B401C1D505
S1130380609318017093190180931A0190931B01D3
S1130390609118017091190180911A0190911B01CB
S11303A028EA35E341E150E45FD718166CF488EA93
S11303B095E3A1E1B0E48093180190931901A0930F
S11303C01A01B0931B011BC06091180170911901AF
S11303D080911A0190911B0128EA35E341E150EC28
S11303E0F4D5882364F488EA95E3A1E1B0EC809322
S11303F0180190931901A0931A01B0931B018091E5
S1130400180190911901A0911A01B0911B018093D8
S11304103D0290933E02A0933F02B093400220918C
S113042062028DEC289F812D1124869586958695F0
S1130430880F982F990F990F890F281370C1609115
S11304403D0270913E0280913F02909140022091C2
S1130450000130910101409102015091030104D740
S113046088238CF08091000190910101A0910201F8
S1130470B091030180933D0290933E02A0933F020A
S1130480B093400227C08091000190910101A09196
S11304900201B091030120913D0230913E0240914E
S11304A03F0250914002BC01CD019058DDD6882313
S11304B08CF08091000190910101A0910201B09112
S11304C00301B05880933D0290933E02A0933F02F3
S11304D0B09340026091100170911101809112015A
S11304E09091130120910C0130910D0140910E0166
S11304F050910F0105D52AE037ED43EA5BE369D556
S113050060937102709372028093730290937402E9
S11305108091100190911101A0911201B0911301E9
S113052080930C0190930D01A0930E01B0930F01E1
S11305308091710290917202A0917302B091740241
S11305408093240190932501A0932601B093270161
S113055060913D0270913E0280913F029091400271
S11305602091710230917202409173025091740291
S1130570C7D460936B0270936C0280936D02909366
S11305806E0280906B0290906C02A0906D02B0900D
S11305906E02609138027091390280913A02909112
S11305A03B022BEC31EA46E252E462D62AE037ED14
S11305B043EA5BE35DD66B017C0127ED33EA40EC53
S11305C05FE3C501B40154D69B01AC01C701B60178
S11305D098D460931C0170931D0180931E01909325
S11305E01F0160916B0270916C0280916D02909179
S11305F06E02209138023091390240913A025091B2
S11306003B027FD4609338027093390280933A029C
S113061090933B0260911C0170911D0180911E0119
S113062090911F0128EB3EE145E050E41DD688235C
S1130630A4F160911C0170911D0180911E019091A3
S11306401F01C0903802D0903902E0903A02F09035
S11306503B0228EB3EE145E050E452D422E336EE7F
S113066046E75FE305D69B01AC01C701B60148D458
S1130670609338027093390280933A0290933B025C
S113068088EB9EE1A5E0B0E480931C0190931D01EA
S1130690A0931E01B0931F0142C060911C01709190
S11306A01D0180911E0190911F0128EB3EE145E060
S11306B050EC8BD418169CF160911C0170911D01B3
S11306C080911E0190911F01C0903802D090390290
S11306D0E0903A02F0903B0228EB3EE145E050E422
S11306E010D422E336EE46E75FE3C2D59B01AC01AA
S11306F0C701B60105D46093380270933902809320
S11307003A0290933B0288EB9EE1A5E0B0EC809323
S11307101C0190931D01A0931E01B0931F018091B1
S11307201C0190911D01A0911E01B0911F018093A5
S1130730280290932902A0932A02B0932B0260917D
S113074028027091290280912A0290912B02209113
S1130750040130910501409106015091070184D5AF
S113076088238CF08091040190910501A0910601E9
S1130770B09107018093280290932902A0932A0242
S1130780B0932B0227C08091040190910501A091A0
S11307900601B0910701209128023091290240916D
S11307A02A0250912B02BC01CD0190585DD58823BB
S11307B08CF08091040190910501A0910601B09103
S11307C00701B0588093280290932902A0932A022B
S11307D0B0932B0260916302709164028091650270
S11307E09091660220E030E040E85AE341D520E0F1
S11307F030E040EA50E43CD52BED3AE84FE150E4D8
S11308007FD320E030E040E251E432D5DC01CB017B
S1130810B0588093300290933102A0933202B09387
S11308203302609128027091290280912A029091EA
S11308302B022091300230913102409132025091CA
S113084033025ED36093460270934702809348025A
S1130850909349028090460290904702A0904802EB
S1130860B090490260914202709143028091440227
S11308709091450223E33BE34AE055E4F9D42FE6A3
S113088032E143E05AE3F4D46B017C0126E436EB15
S113089043E55FE3C501B401EBD49B01AC01C7019F
S11308A0B6012FD36093200170932101809322011C
S11308B0909323016091710270917202809173028E
S11308C090917402C0902001D0902101E090220107
S11308D0F09023012FED30EE4BE85DE3C9D4A7017E
S11308E096010FD36093200170932101809322011C
S11308F090932301609146027091470280914802CF
S11309009091490220914202309143024091440265
S113091050914502F6D26093420270934302809351
S113092044029093450260912001709121018091CD
S113093022019091230120E030E040EC51E494D472
S11309408823A4F1609120017091210180912201FA
S113095090912301C0904202D0904302E09044025F
S1130960F090450220E030E040EC51E4C9D222EF9F
S11309703AEF40E850E47CD49B01AC01C701B601D6
S1130980BFD26093420270934302809344029093D7
S1130990450280E090E0A0ECB1E4809320019093C4
S11309A02101A0932201B093230142C06091200150
S11309B070912101809122019091230120E030E087
S11309C040EC51EC02D318169CF160912001709117
S11309D021018091220190912301C0904202D09084
S11309E04302E0904402F090450220E030E040EC05
S11309F051E487D222EF3AEF40E850E439D49B0126
S1130A00AC01C701B6017CD26093420270934302E9
S1130A10809344029093450280E090E0A0ECB1EC16
S1130A208093200190932101A0932201B09323018C
S1130A306091200170912101809122019091230104
S1130A4044DB809162028F5F8093620280910A018D
S1130A5090910B01019690930B0180930A01FF91F1
S1130A60EF91CF91BF91AF919F918F917F916F91B2
S1130A705F914F913F912F91FF90EF90DF90CF9036
S1130A80BF90AF909F908F900F900BBE0F900FBEB2
S1130A900F901F901895CF93DF93CDB7DEB764976F
S1130AA00FB6F894DEBF0FBECDBF8EEF8C838B8361
S1130AB08A838983C2D108D210D2CCD1D0D1E2D1D9
S1130AC010928900109288001DBC1CBC60E070E08C
S1130AD0CB01FBDAF4D126DB10921401109215013C
S1130AE0109216011092170183E882BF7894B12CFA
S1130AF00F2EF4E19F2EF02D0F2EF3E0AF2EF02DEC
S1130B007E0185E1E80EF11C0F2EFEE4CF2EF2E00B
S1130B10DF2EF02D6894772471F8882483942DC1F6
S1130B20809170028130E1F018F08230E1F120C14F
S1130B30E0916F02F0E0E85DFE4F80818F3F69F441
S1130B40809141028F5F8093410280914102843001
S1130B5009F00EC1809270020BC11092410208C1CB
S1130B60E091410281E08E0F80934102F0E0A09178
S1130B706F02B0E0A85DBE4F8C91E25BFD4F8083B5
S1130B8080914102883009F0F3C0F601958180918B
S1130B900801981303C070927002EAC010927002A8
S1130BA010924102E5C0E091410281E08E0F8093F2
S1130BB04102F0E0A0916F02B0E0A85DBE4F8C91BD
S1130BC0E25BFD4F8083E0916F02F0E0E85DFE4F51
S1130BD08081B80EF6019481809141029813B9C0C6
S1130BE08781B812B0C08681823009F0ACC06085BC
S1130BF071858285938588D220E030E04AE754E409
S1130C00E8D16093140170931501809316019093B9
S1130C101701F601648575858685978575D220E070
S1130C2030E04AE754E4D5D16093000170930101A8
S1130C30809302019093030160910001709101017E
S1130C40809102019091030120E030E0A901BDD11F
S1130C5088238CF48091000190910101A0910201FC
S1130C60B0910301B0588093000190930101A093C7
S1130C700201B09303016091000170910101809120
S1130C8002019091030128EA35E341E150E4ECD2FA
S1130C90181664F488EA95E3A1E1B0E480930001B6
S1130CA090930101A0930201B0930301F6016089BE
S1130CB071898289938928D220E030E04AE754E49C
S1130CC088D1609304017093050180930601909389
S1130CD007016091040170910501809106019091D2
S1130CE0070120E030E0A90170D188238CF48091C1
S1130CF0040190910501A0910601B0910701B0583B
S1130D008093040190930501A0930601B093070119
S1130D106091040170910501809106019091070191
S1130D2020E030E040E250E49FD2181664F480E002
S1130D3090E0A0E2B0E48093040190930501A093B5
S1130D400601B09307011092700210924102B12C77
S1130D500FC0F601948180914102981720F0809190
S1130D604102853128F01092700210924102B12C98
S1130D7080916F028F5F80936F0290916F028091D8
S1130D803C029813CDCE80910A0190910B014497B7
S1130D90A4F310920B0110920A01809108018E8332
S1130DA09D82AF821886609110017091110180912B
S1130DB012019091130120E030E04AE754E458D244
S1130DC070D169877A878B879C8760917102709153
S1130DD07202809173029091740220E030E04AE73D
S1130DE054E446D25ED16D877E878F87988B60915D
S1130DF0300270913102809132029091330220E0EE
S1130E0030E04AE754E434D24CD1698B7A8B8B8B33
S1130E109C8BFE01399681919885890F8887EE1500
S1130E20FF05C9F78E010F5F1F4FF80181918F01F4
S1130E3059D00E151F05C9F7A0CF8FEF8ABB84BB0D
S1130E4088E081BB87E687BB8AE182B91BBA87E069
S1130E5088BB089584E083BF81E087BF089582EE54
S1130E608FBD81E18EBD8FE891E097BD86BD109264
S1130E707900109278001BBC1ABC19BC18BC1DBCAC
S1130E801CBC089582EB80938B0081E180938A00DF
S1130E908FE891E09093810080938000109283000A
S1130EA010928200109287001092860010928500A2
S1130EB0109284001092890010928800089580E4B2
S1130EC087B986E886B908951BB888E98AB986E0A7
S1130ED08093950087E689B9089580E58DB981E00E
S1130EE08EB908955D9BFECF8CB908958FB9779B19
S1130EF0FECF8FB108951FB8779BFECF8FB10895B1
S1130F005058BB27AA270ED075C166D130F06BD1DB
S1130F1020F031F49F3F11F41EF45BC10EF4E09510
S1130F20E7FB51C1E92F77D180F3BA176207730742
S1130F308407950718F071F49EF58FC10EF4E095BF
S1130F400B2EBA2FA02D0B01B90190010C01CA017F
S1130F50A0011124FF27591B99F0593F50F4503E2A
S1130F6068F11A16F040A22F232F342F4427585F1C
S1130F70F3CF469537952795A795F0405395C9F734
S1130F807EF41F16BA0B620B730B840BBAF09150EC
S1130F90A1F0FF0FBB1F661F771F881FC2F70EC08B
S1130FA0BA0F621F731F841F48F48795779567955E
S1130FB0B795F7959E3F08F0B3CF9395880F08F047
S1130FC09927EE0F979587950895D9D008F481E075
S1130FD008950CD00FC107D140F0FED030F021F4B9
S1130FE05F3F19F0F0C0511139C1F3C014D198F327
S1130FF09923C9F35523B1F3951B550BBB27AA2796
S113100062177307840738F09F5F5F4F220F331F07
S1131010441FAA1FA9F333D00E2E3AF0E0E830D0D3
S113102091505040E695001CCAF729D0FE2F27D0D6
S1131030660F771F881FBB1F261737074807AB07A4
S1131040B0E809F0BB0B802DBF01FF2793585F4F19
S11310502AF09E3F510568F0B6C000C15F3FECF333
S1131060983EDCF3869577956795B795F7959F5FDE
S1131070C9F7880F911D9695879597F90895E1E032
S1131080660F771F881FBB1F621773078407BA0791
S113109020F0621B730B840BBA0BEE1F88F7E095EC
S11310A0089504D06894B111D9C00895BCD088F0D3
S11310B09F5790F0B92F9927B751A0F0D1F0660F40
S11310C0771F881F991F1AF0BA95C9F712C0B1305B
S11310D081F0C3D0B1E00895C0C0672F782F88276E
S11310E0B85F39F0B93FCCF3869577956795B3959A
S11310F0D9F73EF490958095709561957F4F8F4F09
S11311009F4F0895E89409C097FB3EF4909580950D
S1131110709561957F4F8F4F9F4F9923A9F0F92FB9
S113112096E9BB279395F695879577956795B79537
S1131130F111F8CFFAF4BB0F11F460FF1BC06F5F1D
S11311407F4F8F4F9F4F16C0882311F096E911C02F
S1131150772321F09EE8872F762F05C0662371F050
S113116096E8862F70E060E02AF09A95660F771F64
S1131170881FDAF7880F9695879597F90895990F40
S11311800008550FAA0BE0E8FEEF16161706E8074D
S1131190F907C0F012161306E407F50798F0621B6E
S11311A0730B840B950B39F40A2661F0232B242B43
S11311B0252B21F408950A2609F4A140A6958FEF62
S11311C0811D811D089597F99F6780E870E060E0B4
S11311D008959FEF80EC089500240A9416161706CC
S11311E018060906089500240A9412161306140614
S11311F005060895092E0394000C11F4882352F077
S1131200BB0F40F4BF2B11F460FF04C06F5F7F4F2E
S11312108F4F9F4F089557FD9058440F551F59F015
S11312205F3F71F04795880F97FB991F61F09F3FCF
S113123079F087950895121613061406551FF2CFF8
S11312404695F1DF08C0161617061806991FF1CF48
S113125086957105610508940895E894BB2766276F
S11312607727CB0197F908958ADF08F48FEF089563
S11312700BD0C0CFB1DF28F0B6DF18F0952309F00A
S1131280A2CFA7CF1124EACFC6DFA0F3959FD1F355
S1131290950F50E0551F629FF001729FBB27F00D20
S11312A0B11D639FAA27F00DB11DAA1F649F662775
S11312B0B00DA11D661F829F2227B00DA11D621FC4
S11312C0739FB00DA11D621F839FA00D611D221F7E
S11312D0749F3327A00D611D231F849F600D211D62
S11312E0822F762F6A2F11249F5750408AF0E1F005
S11312F088234AF0EE0FFF1FBB1F661F771F881F4E
S113130091505040A9F79E3F510570F05CCFA6CF95
S11313105F3FECF3983EDCF3869577956795B79538
S1131320F795E7959F5FC1F7FE2B880F911D969562
S10D1330879597F90895F894FFCF0C
S10D133AF366DF3F48E1BA3F01000B
S9030000FC
